{
  "contractName": "PredictionMarket",
  "abi": [
    {
      "inputs": [],
      "payable": false,
      "stateMutability": "nonpayable",
      "type": "constructor"
    },
    {
      "anonymous": false,
      "inputs": [
        {
          "indexed": false,
          "internalType": "uint256",
          "name": "id",
          "type": "uint256"
        },
        {
          "indexed": true,
          "internalType": "address",
          "name": "better",
          "type": "address"
        },
        {
          "indexed": false,
          "internalType": "bool",
          "name": "outcome",
          "type": "bool"
        },
        {
          "indexed": false,
          "internalType": "uint256",
          "name": "amount",
          "type": "uint256"
        }
      ],
      "name": "BetPlaced",
      "type": "event"
    },
    {
      "anonymous": false,
      "inputs": [
        {
          "indexed": false,
          "internalType": "uint256",
          "name": "id",
          "type": "uint256"
        },
        {
          "indexed": false,
          "internalType": "string",
          "name": "description",
          "type": "string"
        }
      ],
      "name": "PredictionCreated",
      "type": "event"
    },
    {
      "anonymous": false,
      "inputs": [
        {
          "indexed": false,
          "internalType": "uint256",
          "name": "id",
          "type": "uint256"
        },
        {
          "indexed": false,
          "internalType": "bool",
          "name": "outcome",
          "type": "bool"
        }
      ],
      "name": "PredictionResolved",
      "type": "event"
    },
    {
      "constant": true,
      "inputs": [],
      "name": "owner",
      "outputs": [
        {
          "internalType": "address",
          "name": "",
          "type": "address"
        }
      ],
      "payable": false,
      "stateMutability": "view",
      "type": "function"
    },
    {
      "constant": true,
      "inputs": [
        {
          "internalType": "uint256",
          "name": "",
          "type": "uint256"
        }
      ],
      "name": "predictions",
      "outputs": [
        {
          "internalType": "address",
          "name": "creator",
          "type": "address"
        },
        {
          "internalType": "string",
          "name": "description",
          "type": "string"
        },
        {
          "internalType": "uint256",
          "name": "endTime",
          "type": "uint256"
        },
        {
          "internalType": "enum PredictionMarket.PredictionStatus",
          "name": "status",
          "type": "uint8"
        },
        {
          "internalType": "bool",
          "name": "outcome",
          "type": "bool"
        },
        {
          "internalType": "uint256",
          "name": "totalYes",
          "type": "uint256"
        },
        {
          "internalType": "uint256",
          "name": "totalNo",
          "type": "uint256"
        }
      ],
      "payable": false,
      "stateMutability": "view",
      "type": "function"
    },
    {
      "constant": false,
      "inputs": [
        {
          "internalType": "string",
          "name": "_description",
          "type": "string"
        },
        {
          "internalType": "uint256",
          "name": "_duration",
          "type": "uint256"
        }
      ],
      "name": "createPrediction",
      "outputs": [],
      "payable": false,
      "stateMutability": "nonpayable",
      "type": "function"
    },
    {
      "constant": false,
      "inputs": [
        {
          "internalType": "uint256",
          "name": "_id",
          "type": "uint256"
        },
        {
          "internalType": "bool",
          "name": "_outcome",
          "type": "bool"
        }
      ],
      "name": "placeBet",
      "outputs": [],
      "payable": true,
      "stateMutability": "payable",
      "type": "function"
    },
    {
      "constant": false,
      "inputs": [
        {
          "internalType": "uint256",
          "name": "_id",
          "type": "uint256"
        },
        {
          "internalType": "bool",
          "name": "_outcome",
          "type": "bool"
        }
      ],
      "name": "resolvePrediction",
      "outputs": [],
      "payable": false,
      "stateMutability": "nonpayable",
      "type": "function"
    },
    {
      "constant": false,
      "inputs": [
        {
          "internalType": "uint256",
          "name": "_id",
          "type": "uint256"
        }
      ],
      "name": "withdrawWinnings",
      "outputs": [],
      "payable": false,
      "stateMutability": "nonpayable",
      "type": "function"
    },
    {
      "constant": true,
      "inputs": [],
      "name": "getPredictionsCount",
      "outputs": [
        {
          "internalType": "uint256",
          "name": "",
          "type": "uint256"
        }
      ],
      "payable": false,
      "stateMutability": "view",
      "type": "function"
    }
  ],
  "bytecode": "0x608060405234801561001057600080fd5b50600180546001600160a01b03191633179055610b49806100326000396000f3fe60806040526004361061006f5760003560e01c80638da5cb5b1161004e5780638da5cb5b146101c25780639576d366146101f35780639ed9c74d146102a8578063cf68116d146102cd5761006f565b80624fbbb014610074578063147947021461016457806376f3450114610190575b600080fd5b34801561008057600080fd5b5061009e6004803603602081101561009757600080fd5b50356102f4565b60405180886001600160a01b03166001600160a01b03168152602001806020018781526020018660018111156100d057fe5b60ff16815260200185151515158152602001848152602001838152602001828103825288818151815260200191508051906020019080838360005b8381101561012357818101518382015260200161010b565b50505050905090810190601f1680156101505780820380516001836020036101000a031916815260200191505b509850505050505050505060405180910390f35b34801561017057600080fd5b5061018e6004803603602081101561018757600080fd5b50356103df565b005b34801561019c57600080fd5b5061018e600480360360408110156101b357600080fd5b50803590602001351515610547565b3480156101ce57600080fd5b506101d76106ca565b604080516001600160a01b039092168252519081900360200190f35b3480156101ff57600080fd5b5061018e6004803603604081101561021657600080fd5b81019060208101813564010000000081111561023157600080fd5b82018360208201111561024357600080fd5b8035906020019184600183028401116401000000008311171561026557600080fd5b91908080601f01602080910402602001604051908101604052809392919081815260200183838082843760009201919091525092955050913592506106d9915050565b61018e600480360360408110156102be57600080fd5b5080359060200135151561091d565b3480156102d957600080fd5b506102e2610a75565b60408051918252519081900360200190f35b6000818154811061030157fe5b600091825260209182902060089091020180546001808301805460408051601f60026000199685161561010002969096019093169490940491820187900487028401870190528083526001600160a01b0390931695509293909291908301828280156103ae5780601f10610383576101008083540402835291602001916103ae565b820191906000526020600020905b81548152906001019060200180831161039157829003601f168201915b5050506002840154600385015460048601546005909601549495919460ff8083169550610100909204909116925087565b60008082815481106103ed57fe5b6000918252602090912060089091020190506001600382015460ff16600181111561041457fe5b14610455576040805162461bcd60e51b815260206004820152600c60248201526b139bdd081c995cdbdb1d995960a21b604482015290519081900360640190fd5b6003810154600090610100900460ff1661048057336000908152600783016020526040902054610493565b3360009081526006830160205260409020545b9050600081116104d8576040805162461bcd60e51b815260206004820152600b60248201526a4e6f2077696e6e696e677360a81b604482015290519081900360640190fd5b6003820154610100900460ff161561050157336000908152600683016020526040812055610514565b3360009081526007830160205260408120555b604051339082156108fc029083906000818181858888f19350505050158015610541573d6000803e3d6000fd5b50505050565b6001546001600160a01b0316331461059f576040805162461bcd60e51b81526020600482015260166024820152754f6e6c79206f776e65722063616e207265736f6c766560501b604482015290519081900360640190fd5b60008083815481106105ad57fe5b6000918252602082206008909102019150600382015460ff1660018111156105d157fe5b14610616576040805162461bcd60e51b815260206004820152601060248201526f105b1c9958591e481c995cdbdb1d995960821b604482015290519081900360640190fd5b8060020154421015610666576040805162461bcd60e51b8152602060048201526014602482015273546f6f206561726c7920746f207265736f6c766560601b604482015290519081900360640190fd5b600381018054600160ff199091161761ff0019166101008415159081029190911790915560408051858152602081019290925280517fa9d962ae3fe0d2c416ffe3dd757819699b5662be6ed8b67ed6644d5f232cac6c9281900390910190a1505050565b6001546001600160a01b031681565b6000825111610723576040805162461bcd60e51b815260206004820152601160248201527022b6b83a3c903232b9b1b934b83a34b7b760791b604482015290519081900360640190fd5b610e10811161076e576040805162461bcd60e51b8152602060048201526012602482015271111d5c985d1a5bdb881d1bdbc81cda1bdc9d60721b604482015290519081900360640190fd5b60006040518060e00160405280336001600160a01b031681526020018481526020018342018152602001600060018111156107a557fe5b8152600060208083018290526040830182905260609092018190528354600180820180875595835291839020845160089092020180546001600160a01b0319166001600160a01b03909216919091178155838301518051919361080d93850192910190610a7c565b5060408201516002820155606082015160038201805460ff19166001838181111561083457fe5b021790555060808201518160030160016101000a81548160ff02191690831515021790555060a0820151816004015560c082015181600501555050507f611b851c586fb53b9aae86344db19e0e0dd8f785abd9117602396d3bccb37c41600160008054905003836040518083815260200180602001828103825283818151815260200191508051906020019080838360005b838110156108de5781810151838201526020016108c6565b50505050905090810190601f16801561090b5780820380516001836020036101000a031916815260200191505b50935050505060405180910390a15050565b600080838154811061092b57fe5b6000918252602082206008909102019150600382015460ff16600181111561094f57fe5b14610991576040805162461bcd60e51b815260206004820152600d60248201526c13585c9ad95d0818db1bdcd959609a1b604482015290519081900360640190fd5b600034116109d7576040805162461bcd60e51b815260206004820152600e60248201526d16995c9bc81d985b1d594818995d60921b604482015290519081900360640190fd5b8115610a075733600090815260068201602052604090208054349081019091556004820180549091019055610a2d565b336000908152600782016020526040902080543490810190915560058201805490910190555b6040805184815283151560208201523481830152905133917f4af71b021e799c62c158bd54636ca8da2fa26115a21a2dc6efe486ec104fd15f919081900360600190a2505050565b6000545b90565b828054600181600116156101000203166002900490600052602060002090601f016020900481019282601f10610abd57805160ff1916838001178555610aea565b82800160010185558215610aea579182015b82811115610aea578251825591602001919060010190610acf565b50610af6929150610afa565b5090565b610a7991905b80821115610af65760008155600101610b0056fea265627a7a72315820e2e1fa44ba654e533755e72444707b99f3a4483e1724499e484fb6d3b6fb0b9764736f6c63430005100032",
  "source": "// SPDX-License-Identifier: MIT\r\npragma solidity ^0.5.16;\r\n\r\ncontract PredictionMarket {\r\n    enum PredictionStatus { Active, Resolved }\r\n    \r\n    struct Prediction {\r\n        address creator;\r\n        string description;\r\n        uint256 endTime;\r\n        PredictionStatus status;\r\n        bool outcome;\r\n        uint256 totalYes;\r\n        uint256 totalNo;\r\n        mapping(address => uint256) yesBets;\r\n        mapping(address => uint256) noBets;\r\n    }\r\n\r\n    Prediction[] public predictions;\r\n    address public owner;\r\n    \r\n    event PredictionCreated(uint256 id, string description);\r\n    event BetPlaced(uint256 id, address indexed better, bool outcome, uint256 amount);\r\n    event PredictionResolved(uint256 id, bool outcome);\r\n\r\n    constructor() public {\r\n        owner = msg.sender;\r\n    }\r\n\r\n    function createPrediction(string memory _description, uint256 _duration) public {\r\n        require(bytes(_description).length > 0, \"Empty description\");\r\n        require(_duration > 3600, \"Duration too short\");\r\n        \r\n        predictions.push(Prediction({\r\n            creator: msg.sender,\r\n            description: _description,\r\n            endTime: now + _duration,\r\n            status: PredictionStatus.Active,\r\n            outcome: false,\r\n            totalYes: 0,\r\n            totalNo: 0\r\n        }));\r\n        emit PredictionCreated(predictions.length - 1, _description);\r\n    }\r\n\r\n    function placeBet(uint256 _id, bool _outcome) public payable {\r\n        Prediction storage p = predictions[_id];\r\n        require(p.status == PredictionStatus.Active, \"Market closed\");\r\n        require(msg.value > 0, \"Zero value bet\");\r\n        \r\n        if(_outcome) {\r\n            p.yesBets[msg.sender] += msg.value;\r\n            p.totalYes += msg.value;\r\n        } else {\r\n            p.noBets[msg.sender] += msg.value;\r\n            p.totalNo += msg.value;\r\n        }\r\n        emit BetPlaced(_id, msg.sender, _outcome, msg.value);\r\n    }\r\n\r\n    function resolvePrediction(uint256 _id, bool _outcome) public {\r\n        require(msg.sender == owner, \"Only owner can resolve\");\r\n        Prediction storage p = predictions[_id];\r\n        require(p.status == PredictionStatus.Active, \"Already resolved\");\r\n        require(now >= p.endTime, \"Too early to resolve\");\r\n        \r\n        p.status = PredictionStatus.Resolved;\r\n        p.outcome = _outcome;\r\n        emit PredictionResolved(_id, _outcome);\r\n    }\r\n\r\n    function withdrawWinnings(uint256 _id) public {\r\n        Prediction storage p = predictions[_id];\r\n        require(p.status == PredictionStatus.Resolved, \"Not resolved\");\r\n\r\n        uint256 amount = p.outcome ? p.yesBets[msg.sender] : p.noBets[msg.sender];\r\n        require(amount > 0, \"No winnings\");\r\n        \r\n        if(p.outcome) {\r\n            p.yesBets[msg.sender] = 0;\r\n        } else {\r\n            p.noBets[msg.sender] = 0;\r\n        }\r\n        \r\n        msg.sender.transfer(amount);\r\n    }\r\n\r\n    function getPredictionsCount() public view returns(uint256) {\r\n        return predictions.length;\r\n    }\r\n}",
  "sourcePath": "S:\\prediction-market\\contracts\\PredictionMarket.sol",
  "compiler": {
    "name": "solc",
    "version": "0.5.16+commit.9c3226ce.Emscripten.clang"
  },
  "schemaVersion": "3.4.16",
  "updatedAt": "2025-02-09T16:07:40.998Z",
  "networkType": "ethereum",
  "devdoc": {
    "methods": {}
  },
  "userdoc": {
    "methods": {}
  }
}